:100000000C9441000C945E000C945E000C945E0015
:100010000C945E000C945E000C945E000C945E00E8
:100020000C945E000C9472040C945E000C945E00C0
:100030000C945E000C945E000C945E000C945E00C8
:100040000C945E000C945E000C945E000C945E00B8
:100050000C945E00084AD73B3BCE016E84BCBFFDCA
:10006000C12F3D6C74319ABD56833DDA3D00C77F88
:1000700011BED9E4BB4C3E916BAAAABE0000008021
:100080003F0011241FBECFE5D8E0DEBFCDBF10E09A
:10009000A0E6B0E0E6ECFFE002C005900D92AC3BBC
:1000A000B107D9F720E0ACEBB0E001C01D92A53D4F
:1000B000B207E1F70E94A8030C94E1070C9400003A
:1000C00010BC89E189B988E98AB986E880BD0895BC
:1000D0005F9BFECF8CB108955D9BFECF8CB90895D8
:1000E000EF92FF920F931F93CF93DF93CDB7DEB7BD
:1000F0002A970FB6F894DEBF0FBECDBF009729F444
:100100002CC0101611069CF028C0FE01319600E0AC
:1001100010E02AE030E0B9010E944E0781939193EC
:10012000862F972F0F5F1F4F0097A9F7EACF78010F
:10013000EE0CFF1C81E090E08C0F9D1FE80EF91E75
:100140000150110992E0E91AF108F7018081805D00
:100150000E946C000115110599F72A960FB6F894C4
:10016000DEBF0FBECDBFDF91CF911F910F91FF90EA
:10017000EF9008952F923F924F925F926F927F92ED
:100180008F929F92AF92BF92CF92DF92EF92FF92A7
:100190000F931F93CF93DF93CDB7DEB7C455D1092B
:1001A0000FB6F894DEBF0FBECDBF62962FAF629739
:1001B00063963FAF639764964FAF649765965FAF62
:1001C0006597562E472E382E292EA0E00E94C10793
:1001D00031F479C0161417040CF45AC074C0CE015F
:1001E00001964C01612C712C0F2EFAE0AF2EF02DF0
:1001F000B12CC12CD12CE12CF12C00E010E0629646
:100200002FAD629763963FAD639764964FAD649749
:1002100065965FAD6597652D742D832D922D0E9497
:100220006207F4012083318342835383648375839F
:1002300086839783F8E08F0E911C62962FAD6297AC
:1002400063963FAD639764964FAD649765965FADD7
:100250006597652D742D832D922D0E9464076296FB
:100260002FAF629763963FAF639764964FAF6497E3
:1002700065965FAF6597562E472E382E292EEFEFE5
:100280006E1A7E0AA0E00E94C10709F0ADCFA2CF8E
:100290004301880C991C880C991C880C991C81E0DE
:1002A00090E08C0F9D1F880E991E91E0691A7108CD
:1002B000E8E08E1A9108F4018081805D0E946C0054
:1002C0006114710491F7CC5ADF4F0FB6F894DEBF7A
:1002D0000FBECDBFDF91CF911F910F91FF90EF9097
:1002E000DF90CF90BF90AF909F908F907F906F9056
:1002F0005F904F903F902F900895CF93DF93EC0144
:100300008881882331F021960E946C0089918111A7
:10031000FBCFDF91CF9108950E942C048AE10E94C7
:1003200030048BE00E94570481E00E9457040E9431
:1003300051048AE10E94300489E00E9457048DE153
:100340000E9457040E94510408958AE10E943004DB
:1003500080E00E9457040E9451048BE10E944E04E9
:100360000E94640490E09093D0008093CF000E949C
:1003700064042091CF003091D000382B285C3109E3
:100380003093D0002093CF000E94640490E09093BB
:10039000CE008093CD000E9464042091CD00309166
:1003A000CE00382B2C593F4F3093CE002093CD00F8
:1003B0000E94640490E09093CC008093CB000E9454
:1003C0006B042091CB003091CC00382B3093CC00C3
:1003D0002093CB000E9451040895CF92DF92EF92B8
:1003E000FF926091CF007091D000072E000C880B17
:1003F000990B0E9422066B017C016091CD007091E7
:10040000CE00072E000C880B990B0E942206A70134
:1004100096010E94190520E030E044E353E40E9475
:10042000DD062BED3FE049E450E40E94780520E032
:1004300030E044E353E40E949A040E94EA05CB01B1
:10044000FF90EF90DF90CF90089515BA18BA0895F5
:100450004F925F926F927F929F92AF92BF92CF9294
:10046000DF92EF92FF920F931F93CF93DF938C0154
:100470001092C3001092C2001092C6001092C700E2
:100480001092C8001092C9006C01990FEE08FF0885
:10049000CAE6D4E00F2EF1E29F2EF02D0F2EF8EADF
:1004A000AF2EF02D6894BB24B6F88091C6009091D1
:1004B000C700A091C800B091C900C816D906EA06C5
:1004C000FB060CF446C0839B03C00E942502EDCFBF
:1004D0001092CA008091C2009091C300019690933F
:1004E000C3008093C200BE010E944E077093C500F6
:1004F0006093C400969EC001979E900D1124092E12
:10050000000CAA0BBB0B8093C6009093C700A0936E
:10051000C800B093C900A5BAB8BA8091C60090913E
:10052000C700A091C800B091C9002C013D01770C13
:100530004408542C3201282F392F4A2F5B2F642D69
:10054000742D842D942D0E94BA008AE00E946C00C4
:10055000ACCF80E690E00E947D01C8010E9470004F
:100560008AE00E946C000E942502DF91CF911F91CA
:100570000F91FF90EF90DF90CF90BF90AF909F9042
:100580007F906F905F904F90089588EC85BB80E8D6
:1005900088BB089580E385BB82E488BB0895CF9330
:1005A000DF93EC01181619060CF069C00E94A50132
:1005B0000E94ED019093C1008093C0008AE690E014
:1005C0000E947D018091C0009091C1000E94700046
:1005D0008AE00E946C008091C0009091C1009E0151
:1005E000280F391F3093BF002093BE00293641E009
:1005F000340754F0285631403093BF002093BE009A
:100600008217930729F415C02817390794F422C0DC
:100610000E94C5020E94A5010E94ED019093C100B5
:100620008093C0002091BE003091BF002817390789
:1006300079F70E94C5020E94A5010E94ED019093E6
:10064000C1008093C0002091BE003091BF002817E8
:1006500039077CF78217930769F488E790E00E94D6
:100660007D018091C0009091C1000E9470008AE0DD
:100670000E946C001092BF001092BE0066C00E94E3
:10068000A5010E94ED019093C1008093C00084E811
:1006900090E00E947D018091C0009091C1000E9475
:1006A00070008AE00E946C008091C0009091C100AF
:1006B0009E01280F391F3093BF002093BE003323C3
:1006C00054F428593E4F3093BF002093BE00821748
:1006D000930729F415C08217930794F422C00E944F
:1006E000CA020E94A5010E94ED019093C10080936F
:1006F000C0002091BE003091BF002817390779F75C
:100700000E94CA020E94A5010E94ED019093C100BF
:100710008093C0002091BE003091BF0082179307E4
:100720007CF78217930769F488E790E00E947D01C7
:100730008091C0009091C1000E9470008AE00E94E8
:100740006C001092BF001092BE00DF91CF9108950F
:100750001ABA88EF84BB15BA89EC87BB18BA80EC4B
:100760008BBF89E084BF0E9460000E948C0181B32E
:1007700081BB82B38C6082BB80E884BF84BF0E944F
:1007800068008333B1F118F4813339F062C08433E7
:10079000C9F1853309F45AC05CC084E690E00E9438
:1007A000280286EA9FEF0E94CF0284E690E00E9432
:1007B0002802829B15C087E990E00E947D0184EBAE
:1007C00090E00E94CF0284E690E00E9428028CE331
:1007D00090E00E94CF0284E690E00E94280239C097
:1007E00087EA90E00E947D010E942502829BF8CF5B
:1007F000E2CF86EA9FEF0E94CF028CE49FEF0E9437
:10080000CF0227C084E690E00E9428028AE590E0AB
:100810000E94CF0284E690E00E9428028091BC00F2
:100820009091BD00892B41F40E9425028091BC006B
:100830009091BD00892BC1F32FEF87EA91E62150FB
:1008400080409040E1F700C0000003C08AE00E94B1
:100850006C000E94250293CF11B888E480B90895F6
:1008600094EA96BF06B607FEFDCF91B1987F983007
:1008700011F0903179F483B984E886BF06B607FE9B
:10088000FDCF91B1987F983139F081E0903429F40F
:1008900080E0089581E0089580E008950E9430048A
:1008A000089584E986BF06B604FCFDCF089583B998
:1008B00084E886BF06B607FEFDCF91B1987F81E040
:1008C000983209F480E0089584EC86BF06B607FEEE
:1008D000FDCF83B1089584E886BF06B607FEFDCF3D
:1008E00083B108951F920F920FB60F9211248F9328
:1008F0009F93AF93BF938091D1009091D200A0912C
:10090000D300B091D4000196A11DB11D8093D100F8
:100910009093D200A093D300B093D4001DBC1CBC14
:10092000BF91AF919F918F910F900FBE0F901F902D
:1009300018955058BB27AA270E94B1040C949B0617
:100940000E948D0638F00E94940620F039F49F3FF3
:1009500019F426F40C9463060EF4E095E7FB0C946E
:100960005D06E92F0E94AC0658F3BA1762077307B9
:100970008407950720F079F4A6F50C94CE060EF4C2
:10098000E0950B2EBA2FA02D0B01B90190010C019F
:10099000CA01A0011124FF27591B99F0593F50F4B7
:1009A000503E68F11A16F040A22F232F342F44270F
:1009B000585FF3CF469537952795A795F040539507
:1009C000C9F77EF41F16BA0B620B730B840BBAF0D7
:1009D0009150A1F0FF0FBB1F661F771F881FC2F742
:1009E0000EC0BA0F621F731F841F48F48795779556
:1009F0006795B795F7959E3F08F0B0CF9395880F10
:100A000008F09927EE0F9795879508950E948D0617
:100A100060F080E891E009F49EEF0E94940628F0CF
:100A200040E851E071F45EEF0CC00C9463060C9446
:100A3000CE06E92FE0780E94AC0640F3092E052A85
:100A4000B1F3261737074807590738F00E2E07F875
:100A5000E02569F0E025E0640AC0EF6307F8009440
:100A600007FADB01B9019D01DC01CA01AD01EF9379
:100A70000E948F050E949B060E9449055F915523A5
:100A800039F02BED3FE049E450FD49EC0C949A0419
:100A90000895DF93DD27B92FBF7740E85FE316168F
:100AA000170648075B0718F4D92F0E94D5069F93B5
:100AB0008F937F936F930E944A07E4E5F0E00E94D2
:100AC00066060E949B062F913F914F915F910E9475
:100AD000F006DD2351F09058A2EA2AED3FE049EC00
:100AE0005FE3D0785D270E94B104DF910C949B06F0
:100AF0000E948C050C949B060E94940658F00E945C
:100B00008D0640F029F45F3F29F00C945D065111E9
:100B10000C94CF060C9463060E94AC0668F39923EC
:100B2000B1F3552391F3951B550BBB27AA276217E9
:100B30007307840738F09F5F5F4F220F331F441FF6
:100B4000AA1FA9F335D00E2E3AF0E0E832D091502A
:100B50005040E695001CCAF72BD0FE2F29D0660F17
:100B6000771F881FBB1F261737074807AB07B0E85A
:100B700009F0BB0B802DBF01FF2793585F4F3AF060
:100B80009E3F510578F00C945D060C94CF065F3FB4
:100B9000E4F3983ED4F3869577956795B795F795E6
:100BA0009F5FC9F7880F911D9695879597F90895CE
:100BB000E1E0660F771F881FBB1F6217730784076A
:100BC000BA0720F0621B730B840BBA0BEE1F88F779
:100BD000E09508950E94F1056894B1110C94CF0638
:100BE00008950E94B40688F09F5798F0B92F99276E
:100BF000B751B0F0E1F0660F771F881F991F1AF008
:100C0000BA95C9F714C0B13091F00E94CE06B1E098
:100C100008950C94CE06672F782F8827B85F39F097
:100C2000B93FCCF3869577956795B395D9F73EF4A0
:100C300090958095709561957F4F8F4F9F4F089548
:100C4000E89409C097FB3EF4909580957095619566
:100C50007F4F8F4F9F4F9923A9F0F92F96E9BB271C
:100C60009395F695879577956795B795F111F8CF98
:100C7000FAF4BB0F11F460FF1BC06F5F7F4F8F4F03
:100C80009F4F16C0882311F096E911C0772321F0F9
:100C90009EE8872F762F05C0662371F096E8862F91
:100CA00070E060E02AF09A95660F771F881FDAF7E8
:100CB000880F9695879597F9089597F99F6780E82B
:100CC00070E060E008959FEF80EC0895DF93CF938C
:100CD0001F930F93FF92EF92DF927B018C01689438
:100CE00006C0DA2EEF010E94F006FE01E894A591FD
:100CF0002591359145915591A6F3EF010E94B104DC
:100D0000FE019701A801DA9469F7DF90EF90FF9058
:100D10000F911F91CF91DF91089500240A94161628
:100D2000170618060906089500240A9412161306D9
:100D3000140605060895092E0394000C11F4882367
:100D400052F0BB0F40F4BF2B11F460FF04C06F5F83
:100D50007F4F8F4F9F4F089557FD9058440F551F59
:100D600059F05F3F71F04795880F97FB991F61F02D
:100D70009F3F79F087950895121613061406551FA4
:100D8000F2CF4695F1DF08C0161617061806991F10
:100D9000F1CF86957105610508940895E894BB2705
:100DA00066277727CB0197F908959B01AC0160E096
:100DB00070E080E89FE30C9478050E94F0060C94A4
:100DC0009B060E948D0638F00E94940620F0952321
:100DD00011F00C945D060C94630611240C94CF065C
:100DE0000E94AC0670F3959FC1F3950F50E0551F1C
:100DF000629FF001729FBB27F00DB11D639FAA2770
:100E0000F00DB11DAA1F649F6627B00DA11D661FBE
:100E1000829F2227B00DA11D621F739FB00DA11DDF
:100E2000621F839FA00D611D221F749F3327A00D99
:100E3000611D231F849F600D211D822F762F6A2F35
:100E400011249F5750409AF0F1F088234AF0EE0F9A
:100E5000FF1FBB1F661F771F881F91505040A9F7C7
:100E60009E3F510580F00C945D060C94CF065F3FC9
:100E7000E4F3983ED4F3869577956795B795F79503
:100E8000E7959F5FC1F7FE2B880F911D969587957B
:100E900097F908959B01AC010C94DD0697FB072E92
:100EA00016F4009407D077FD09D00E94CD0707FC07
:100EB00005D03EF4909581959F4F0895709561956A
:100EC0007F4F0895689401C0E8948F929F92CF93CA
:100ED000DF930E947007DF91CF919F908F900895CC
:100EE00088249924F401E401B0E49F93AA279A1579
:100EF0008B049C04ED05FE05CF05D007A10798F4EF
:100F0000AD2FDC2FCF2FFE2FE92D982C892E982F77
:100F1000872F762F652F542F432F322F2227B8503B
:100F200031F7BF9127C01B2EBF91BB27220F331F64
:100F3000441F551F661F771F881F991F881C991C07
:100F4000EE1FFF1FCC1FDD1FAA1FBB1F8A149B04AF
:100F5000EC05FD05CE05DF05A007B10748F08A18AE
:100F60009B08EC09FD09CE09DF09A00BB10B21603C
:100F70001A94E1F62EF49401AF01BE01CD01000CEC
:100F800008950024A7FD00942A1730054005500558
:100F900060057005800590050895AA1BBB1B51E1F3
:100FA00007C0AA1FBB1FA617B70710F0A61BB70BD9
:100FB000881F991F5A95A9F780959095BC01CD017E
:060FC0000895F894FFCF34
:100FC600636F6D706C6574656400696E69746961E0
:100FD6006C20616E676C650066696E616C20616E7F
:100FE600676C6500696E697469616C206C6566740E
:100FF60020616E676C65007377697463682072653B
:101006006C656173656400737769746368206E6FDD
:0C101600742072656C65617365640000F5
:00000001FF
