S0110000526573747572616E742E737265634B
S11300000C9441000C945E000C945E000C945E0011
S11300100C945E000C945E000C945E000C945E00E4
S11300200C945E000C948C050C945E000C945E00A1
S11300300C945E000C945E000C945E000C945E00C4
S11300400C945E000C945E000C945E000C945E00B4
S11300500C945E00084AD73B3BCE016E84BCBFFDC6
S1130060C12F3D6C74319ABD56833DDA3D00C77F84
S113007011BED9E4BB4C3E916BAAAABE000000801D
S11300803F0011241FBECFE5D8E0DEBFCDBF11E095
S1130090A0E6B0E0EAEFF1E102C005900D92AA32C9
S11300A0B107D9F721E0AAE2B1E001C01D92A13461
S11300B0B207E1F70E9437040C94FB080C9400008B
S11300C095ED9A95F1F70000882314F4DA9A01C0AB
S11300D0DA9886FF02C0DB9A01C0DB9885FF02C074
S11300E0DC9A01C0DC9884FF02C0DD9A01C0DD986F
S11300F0DE9ADE9883FF02C0DA9A01C0DA9882FFA2
S113010002C0DB9A01C0DB9881FF02C0DC9A01C007
S1130110DC9880FF02C0DD9A01C0DD98DE9ADE988B
S1130120089510BC89E189B988E98AB986E880BD57
S113013008955F9BFECF8CB108955D9BFECF8CB973
S11301400895EF92FF920F931F93CF93DF93CDB750
S1130150DEB72A970FB6F894DEBF0FBECDBF009767
S113016029F42CC0101611069CF028C0FE0131960B
S113017000E010E02AE030E0B9010E9468088193B1
S11301809193862F972F0F5F1F4F0097A9F7EACF00
S11301907801EE0CFF1C81E090E08C0F9D1FE80EAF
S11301A0F91E0150110992E0E91AF108F701808162
S11301B0805D0E949D000115110599F72A960FB6DE
S11301C0F894DEBF0FBECDBFDF91CF911F910F9189
S11301D0FF90EF9008952F923F924F925F926F920B
S11301E07F928F929F92AF92BF92CF92DF92EF92C3
S11301F0FF920F931F93CF93DF93CDB7DEB7C45510
S1130200D1090FB6F894DEBF0FBECDBF62962FAFF3
S1130210629763963FAF639764964FAF6497659612
S11302205FAF6597562E472E382E292EA0E00E94E8
S1130230DB0831F479C0161417040CF45AC074C0E6
S1130240CE0101964C01612C712C0F2EFAE0AF2ED9
S1130250F02DB12CC12CD12CE12CF12C00E010E0BC
S113026062962FAD629763963FAD639764964FADE8
S1130270649765965FAD6597652D742D832D922DDA
S11302800E947C08F4012083318342835383648376
S1130290758386839783F8E08F0E911C62962FAD49
S11302A0629763963FAD639764964FAD6497659686
S11302B05FAD6597652D742D832D922D0E947E0868
S11302C062962FAF629763963FAF639764964FAF82
S11302D0649765965FAF6597562E472E382E292E64
S11302E0EFEF6E1A7E0AA0E00E94DB0809F0ADCFA2
S11302F0A2CF4301880C991C880C991C880C991C6A
S113030081E090E08C0F9D1F880E991E91E0691A80
S11303107108E8E08E1A9108F4018081805D0E94E2
S11303209D006114710491F7CC5ADF4F0FB6F89415
S1130330DEBF0FBECDBFDF91CF911F910F91FF9014
S1130340EF90DF90CF90BF90AF909F908F907F9071
S11303506F905F904F903F902F900895CF93DF93CD
S1130360EC018881882331F021960E949D008991B7
S11303708111FBCFDF91CF9108950E9446058AE158
S11303800E944A058BE00E94710581E00E9471057C
S11303900E946B058AE10E944A0589E00E9471056A
S11303A08DE10E9471050E946B0508958AE10E9407
S11303B04A0580E00E9471050E946B058BE10E9452
S11303C068050E947E0590E090933C0180933B0178
S11303D00E947E0520913B0130913C01382B285C22
S11303E0310930933C0120933B010E947E0590E04B
S11303F090933A01809339010E947E05209139013E
S113040030913A01382B2C593F4F30933A012093C5
S113041039010E947E0590E0909338018093370162
S11304200E9485052091370130913801382B309393
S11304303801209337010E946B050895CF92DF9213
S1130440EF92FF9260913B0170913C01072E000CEA
S1130450880B990B0E943C076B017C016091390168
S113046070913A01072E000C880B990B0E943C07EF
S1130470A70196010E94330620E030E044E353E4F0
S11304800E94F7072BED3FE049E450E40E949206F6
S113049020E030E044E353E40E94B4050E940407E2
S11304A0CB01FF90EF90DF90CF900895DF9881E02B
S11304B00E9460008FE39FE10197F1F700C0000004
S11304C00895CF93DF93EC01DF9A8881882331F07C
S11304D021960E94600089918111FBCFDF91CF9119
S11304E00895DF9880680E9460000895D79AD69A8C
S11304F0D29AD39AD49AD59ADF98DE988FE59AEE59
S11305000197F1F700C00000DD9ADC9ADB98DA98D5
S1130510DE9ADE988FE19EE40197F1F700C00000B7
S1130520DE9ADE988FE193E00197F1F700C00000B6
S1130530DE9ADE988FE193E00197F1F700C00000A6
S1130540DD98DC9ADB98DA98DE9ADE9888E20E94DD
S113055060008CE00E9460000E94560286E00E94C7
S11305606000089515BA18BA08957F928F929F92E9
S1130570AF92BF92CF92DF92EF92FF920F931F93AD
S1130580CF93DF93EC0110922F0110922E01109261
S113059032011092330110923401109235014C0152
S11305A0990FAA08BB087724739401E218EA809192
S11305B0320190913301A0913401B0913501881634
S11305C09906AA06BB060CF455C0839B10C00E9472
S11305D0560280E690E00E9461028AE70E9471025E
S11305E083E790E00E9461020E94B202E0CF0E9481
S11305F0560283E790E00E94610280E40E94710247
S11306008AE690E00E9461027092360120913001E6
S113061030913101029FC001039F900D1124092ED6
S1130620000CAA0BBB0B8093320190933301A0936F
S11306303401B093350115BB80E488BB809132014D
S113064090913301A0913401B09135016C017D0189
S1130650FF0CCC08DC2C7601282F392F4A2F5B2F76
S11306606C2D7C2D8C2D9C2D0E94EB008AE00E9429
S11306709D009DCF89E790E00E94AE01CE010E94CB
S1130680A1008AE00E949D000E94B202DF91CF91F6
S11306901F910F91FF90EF90DF90CF90BF90AF909C
S11306A09F908F907F90089588EC85BB80E888BBED
S11306B0089580E385BB82E488BB0895CF93DF93DC
S11306C0EC01181619060CF069C00E94D6010E94AC
S11306D01E0290932D0180932C0183E890E00E94E8
S11306E0AE0180912C0190912D010E94A1008AE01D
S11306F00E949D0080912C0190912D019E01280F54
S1130700391F30932B0120932A01293641E0340705
S113071054F02856314030932B0120932A0182173C
S1130720930729F415C02817390794F422C00E94AE
S113073054030E94D6010E941E0290932D018093BF
S11307402C0120912A0130912B012817390779F7C0
S11307500E9454030E94D6010E941E0290932D0110
S113076080932C0120912A0130912B0128173907FD
S11307707CF78217930769F481E990E00E94AE0147
S113078080912C0190912D010E94A1008AE00E9489
S11307909D0010922B0110922A0166C00E94D6017E
S11307A00E941E0290932D0180932C018DE990E00C
S11307B00E94AE0180912C0190912D010E94A10014
S11307C08AE00E949D0080912C0190912D019E0150
S11307D0280F391F30932B0120932A01332354F41B
S11307E028593E4F30932B0120932A0182179307F7
S11307F029F415C08217930794F422C00E94590368
S11308000E94D6010E941E0290932D0180932C0118
S113081020912A0130912B012817390779F70E947A
S113082059030E94D6010E941E0290932D018093C9
S11308302C0120912A0130912B01821793077CF718
S11308408217930769F481E990E00E94AE018091D8
S11308502C0190912D010E94A1008AE00E949D002C
S113086010922B0110922A01DF91CF9108951ABAA8
S113087089EC87BB18BA88EF84BB15BA80EC8BBFB0
S113088089E084BF0E9491000E94BD0181B381BBB5
S113089082B38C6082BB80E884BF84BF0E947602EE
S11308A00E94560280EB90E00E94610280E40E9464
S11308B071028AEB90E00E9461020E9499008233E7
S11308C009F45CC018F4813351F0DDC0833309F4BA
S11308D0A4C0843309F0D7C0829BBFC0A3C084E600
S11308E090E00E94B50286EA9FEF0E945E0384E6D0
S11308F090E00E94B502829B2BC00E9456028BECB2
S113090090E00E94610280E40E9471028BED90E00D
S11309100E94610288EE90E00E94AE012FEF8DE309
S113092099E4215080409040E1F700C0000084EB3E
S113093090E00E945E0384E690E00E94B5028AE59E
S113094090E00E945E0384E690E00E94B5029BC0A2
S11309500E94560288EF90E00E94610280E40E94A7
S1130960710288E091E00E94610286E191E00E94B8
S1130970AE010E94B202829BEBCFBFCF86E990E02A
S11309800E94B5028AE590E00E945E0386E990E049
S11309900E94B502829B2BC00E9456028BEC90E011
S11309A00E94610280E40E9471028BED90E00E943B
S11309B0610288EE90E00E94AE012FEF8DE399E48E
S11309C0215080409040E1F700C0000084EB90E0AB
S11309D00E945E0386E990E00E94B50286EA9FEFDA
S11309E00E945E0386E990E00E94B5024CC00E941A
S11309F0560288EF90E00E94610280E40E94710236
S1130A0088E091E00E94610286E191E00E94AE01DB
S1130A100E94B202829BEBCFBFCF8CE49FEF0E9477
S1130A205E0331C00E9456028BEC90E00E9461028A
S1130A3080E40E9471028BED90E00E94610288EED6
S1130A4090E00E94AE012FEF8DE399E421508040A5
S1130A509040E1F700C0000016C00E94560288EFE3
S1130A6090E00E94610280E40E94710288E091E0BB
S1130A700E94610286E191E00E94AE010E94B202EE
S1130A80829BEBCFCFCF0E94B20217CF11B888E47C
S1130A9080B9089594EA96BF06B607FEFDCF91B1DA
S1130AA0987F983011F0903179F483B984E886BF47
S1130AB006B607FEFDCF91B1987F983139F081E0F9
S1130AC0903429F480E0089581E0089580E0089549
S1130AD00E944A05089584E986BF06B604FCFDCF4A
S1130AE0089583B984E886BF06B607FEFDCF91B1A9
S1130AF0987F81E0983209F480E0089584EC86BF01
S1130B0006B607FEFDCF83B1089584E886BF06B616
S1130B1007FEFDCF83B108951F920F920FB60F9277
S1130B2011248F939F93AF93BF9380913D01909134
S1130B303E01A0913F01B09140010196A11DB11D5C
S1130B4080933D0190933E01A0933F01B0934001F7
S1130B501DBC1CBCBF91AF919F918F910F900FBE94
S1130B600F901F9018955058BB27AA270E94CB05B9
S1130B700C94B5070E94A70738F00E94AE0720F036
S1130B8039F49F3F19F426F40C947D070EF4E09594
S1130B90E7FB0C947707E92F0E94C60758F3BA17AE
S1130BA0620773078407950720F079F4A6F50C947F
S1130BB0E8070EF4E0950B2EBA2FA02D0B01B90116
S1130BC090010C01CA01A0011124FF27591B99F0BF
S1130BD0593F50F4503E68F11A16F040A22F232FCB
S1130BE0342F4427585FF3CF469537952795A7951B
S1130BF0F0405395C9F77EF41F16BA0B620B730BC2
S1130C00840BBAF09150A1F0FF0FBB1F661F771F32
S1130C10881FC2F70EC0BA0F621F731F841F48F4E7
S1130C20879577956795B795F7959E3F08F0B0CF70
S1130C309395880F08F09927EE0F97958795089557
S1130C400E94A70760F080E891E009F49EEF0E94FB
S1130C50AE0728F040E851E071F45EEF0CC00C944C
S1130C607D070C94E807E92FE0780E94C60740F35B
S1130C70092E052AB1F3261737074807590738F014
S1130C800E2E07F8E02569F0E025E0640AC0EF6362
S1130C9007F8009407FADB01B9019D01DC01CA01E0
S1130CA0AD01EF930E94A9060E94B5070E94630656
S1130CB05F91552339F02BED3FE049E450FD49ECB9
S1130CC00C94B4050895DF93DD27B92FBF7740E86E
S1130CD05FE31616170648075B0718F4D92F0E941E
S1130CE0EF079F938F937F936F930E946408E4E5CB
S1130CF0F0E00E9480070E94B5072F913F914F9129
S1130D005F910E940A08DD2351F09058A2EA2AED6F
S1130D103FE049EC5FE3D0785D270E94CB05DF918B
S1130D200C94B5070E94A6060C94B5070E94AE0762
S1130D3058F00E94A70740F029F45F3F29F00C9473
S1130D40770751110C94E9070C947D070E94C6079C
S1130D5068F39923B1F3552391F3951B550BBB27E6
S1130D60AA2762177307840738F09F5F5F4F220F2B
S1130D70331F441FAA1FA9F335D00E2E3AF0E0E822
S1130D8032D091505040E695001CCAF72BD0FE2F6C
S1130D9029D0660F771F881FBB1F26173707480700
S1130DA0AB07B0E809F0BB0B802DBF01FF279358B8
S1130DB05F4F3AF09E3F510578F00C9477070C94FE
S1130DC0E9075F3FE4F3983ED4F3869577956795FA
S1130DD0B795F7959F5FC9F7880F911D96958795ED
S1130DE097F90895E1E0660F771F881FBB1F62170C
S1130DF073078407BA0720F0621B730B840BBA0BCA
S1130E00EE1F88F7E09508950E940B076894B111CE
S1130E100C94E90708950E94CE0788F09F5798F034
S1130E20B92F9927B751B0F0E1F0660F771F881FEB
S1130E30991F1AF0BA95C9F714C0B13091F00E9405
S1130E40E807B1E008950C94E807672F782F882706
S1130E50B85F39F0B93FCCF3869577956795B3952C
S1130E60D9F73EF490958095709561957F4F8F4F9B
S1130E709F4F0895E89409C097FB3EF490958095A0
S1130E80709561957F4F8F4F9F4F9923A9F0F92F4C
S1130E9096E9BB279395F695879577956795B795CA
S1130EA0F111F8CFFAF4BB0F11F460FF1BC06F5FB0
S1130EB07F4F8F4F9F4F16C0882311F096E911C0C2
S1130EC0772321F09EE8872F762F05C0662371F0E3
S1130ED096E8862F70E060E02AF09A95660F771FF7
S1130EE0881FDAF7880F9695879597F9089597F9EB
S1130EF09F6780E870E060E008959FEF80EC0895BC
S1130F00DF93CF931F930F93FF92EF92DF927B01B6
S1130F108C01689406C0DA2EEF010E940A08FE01D3
S1130F20E894A5912591359145915591A6F3EF014A
S1130F300E94CB05FE019701A801DA9469F7DF90BE
S1130F40EF90FF900F911F91CF91DF9108950024AE
S1130F500A941616170618060906089500240A941A
S1130F6012161306140605060895092E0394000CA0
S1130F7011F4882352F0BB0F40F4BF2B11F460FF2F
S1130F8004C06F5F7F4F8F4F9F4F089557FD905858
S1130F90440F551F59F05F3F71F04795880F97FB39
S1130FA0991F61F09F3F79F08795089512161306F3
S1130FB01406551FF2CF4695F1DF08C01616170622
S1130FC01806991FF1CF8695710561050894089557
S1130FD0E894BB2766277727CB0197F908959B01EF
S1130FE0AC0160E070E080E89FE30C9492060E94FC
S1130FF00A080C94B5070E94A70738F00E94AE07B0
S113100020F0952311F00C9477070C947D0711249C
S11310100C94E9070E94C60770F3959FC1F3950FDE
S113102050E0551F629FF001729FBB27F00DB11D68
S1131030639FAA27F00DB11DAA1F649F6627B00DF8
S1131040A11D661F829F2227B00DA11D621F739FE1
S1131050B00DA11D621F839FA00D611D221F749FEF
S11310603327A00D611D231F849F600D211D822F36
S1131070762F6A2F11249F5750409AF0F1F088235D
S11310804AF0EE0FFF1FBB1F661F771F881F91508A
S11310905040A9F79E3F510580F00C9477070C94BB
S11310A0E9075F3FE4F3983ED4F386957795679517
S11310B0B795F795E7959F5FC1F7FE2B880F911DB4
S11310C09695879597F908959B01AC010C94F707C1
S11310D097FB072E16F4009407D077FD09D00E94E1
S11310E0E70807FC05D03EF4909581959F4F08953D
S11310F0709561957F4F0895689401C0E8948F922C
S11311009F92CF93DF930E948A08DF91CF919F90A3
S11311108F90089588249924F401E401B0E49F9306
S1131120AA279A158B049C04ED05FE05CF05D0076C
S1131130A10798F4AD2FDC2FCF2FFE2FE92D982C8B
S1131140892E982F872F762F652F542F432F322FD8
S11311502227B85031F7BF9127C01B2EBF91BB2760
S1131160220F331F441F551F661F771F881F991FA7
S1131170881C991CEE1FFF1FCC1FDD1FAA1FBB1F5D
S11311808A149B04EC05FD05CE05DF05A007B10715
S113119048F08A189B08EC09FD09CE09DF09A00B69
S11311A0B10B21601A94E1F62EF49401AF01BE0153
S11311B0CD01000C08950024A7FD00942A173005E2
S11311C04005500560057005800590050895AA1B2B
S11311D0BB1B51E107C0AA1FBB1FA617B70710F01E
S11311E0A61BB70B881F991F5A95A9F78095909550
S10D11F0BC01CD010895F894FFCF6F
S11311FA457863757365206D6500546F2074616268
S113120A6C6520282A5F2A2900636F6D706C6574E7
S113121A656400696E697469616C20616E676C65E6
S113122A0066696E616C20616E676C6500696E693F
S113123A7469616C206C65667420616E676C650004
S113124A2A5F2A2048656C6C6F004920616D204B27
S113125A616E63686869202A5F2A002A5F2A204D22
S113126A6F76696E67206261636B00746F206F72B8
S113127A646572202A5F2A0073776974636820722E
S113128A656C6561736564005E5F5E20506C6561C0
S113129A7365206C69667400796F757220666F6F66
S11312AA64205E5F5E00737769746368206E6F748E
S10D12BA2072656C656173656400C1
S9030000FC
